:020000040800F2
:1000000000A00020F52101085D2201082912010845
:100010005D2201085D2201085D2201080000000048
:100020000000000000000000000000005D22010848
:100030005D220108000000005D2201087FB9000870
:100040005D2201085D2201085D2201085D22010890
:100050005D2201085D22010861AC00085DAC00086A
:100060005D2201088DB900085D2201085D220108AA
:10007000D1DE00085D2201086D0201085D22010841
:100080005D2201085D2201085D2201085D22010850
:100090005D2201085D2201085D22010859AC0008BB
:1000A0007D930008BD9300086D930008E593000858
:1000B000AD9300089D9300088D9300085D22010810
:1000C0005D2201085D2201085D2201085D22010810
:1000D0005D220108650201085D0201085502010860
:1000E00091B900085D2201085D2201085D22010826
:1000F0005D2201085D2201085D2201085D220108E0
:100100000000000000000000000000005D22010867
:100110005D2201085D2201085D2201085D220108BF
:100120005D2201085D2201085D2201085D220108AF
:100130005D2201085D2201080000000000000000AF
:100140005D2201085D2201085D2201080000000017
:10015000000000000000000000000000000000009F
:1001600000000000000000005D2201085D2201087F
:100170005D220108000000000000000000000000F7
:08018000000000005D220108EF
:100188002DE9F04F2DED028B6F4F704B3B60AFB0F8
:1001980000237B600EF08FF918B90EF0AFF906F066
:1001A8000FFD06F0CBFD6A4A6A4C137843F0010351
:1001B8001370694B4FF47002C3F888200023099329
:1001C8000A93236843F480332360236803F40033DD
:1001D8000A93099B013309930A9B1BB9099BB3F541
:1001E800A04FF2D1236813F4003318BF01230A93F8
:1001F8000A9B012B71D0594DDFF85C81EB7BDFF84E
:100208008CB1DFF88CA1003318BF01233B72544B2B
:10021800C8F80C30636AFB60636A43F080736362FA
:10022800636943F4FC032EAE636103238DF86A30DF
:1002380041F6FF7326F8503D4FF0904031460DF0DF
:1002480037FF4FF6FF7358463146ADF868300DF06A
:100258002FFF444831460DF02BFF434831460DF03F
:1002680027FF424831460DF023FF314640480DF044
:100278001FFF304609F0C6FB3E4A1A9BB3FBF2F358
:100288003D4A3E4813600021102214F0FCF93C4B13
:100298003C4A5A60F02288F8232000229A60DFF84E
:1002A800F48007221A60AB68CAF8003098E80300A7
:1002B800636986E8030043F4802363610823CBF86D
:1002C80018301A981BA90DF0F3FEDAF8003013F075
:1002D800080FA8F10C0829D164E02B4B12221A60F0
:1002E8006368636063686360636843F48063636042
:1002F800636823F47C136360636843F4E813636002
:10030800236843F0807323602268124B9001FBD569
:100318005A6822F003025A605A6842F002025A6090
:10032800636803F00C03082BFAD164E795F88E3163
:10033800012B37D8044B95F88F21DB6813F08059CF
:1003480000F0EB852EE000BFE000002043640008C9
:10035800803300200010024000ED00E06011002012
:100368000005FA0500080048000C00480010004885
:100378000014004840420F0094230020A4220020CB
:1003880010E000E03F19010000200240000400488E
:1003980040190020C4690108BD4B002283F88F2151
:1003A80006F07EFE64200BF0DCFABA4800214FF418
:1003B8008C7214F068F9E369B74843F00703E36106
:1003C800A36943F4E123A361636943F4C023636130
:1003D80000F58874837B416890F80FE003F007020A
:1003E800DB0801EB83039200196A4FF00F0C0EFA39
:1003F80002FE0CFA02F221EA02021A62196A1030AD
:100408004EEA0102A0421A62E4D10022A349002365
:1004180053540132112AF9D1A14AFF2199540133C9
:10042800072BF9D19F4BDAF800409F4A1A609F4882
:1004380000213C2214F027F9C4F3801905234FF05A
:10044800000E9B4A99481EF802100C2202FB0EF27D
:100458001154B9F1000F07D11E3901299FBFFF219F
:1004680003F1FF331154DBB20EF1010EBEF1050F9B
:10047800E7D1904A95F805B013708F4B8F4983F8F0
:1004880000B08F4BBB62C0330B608E4B8E4A03EBC0
:10049800CB03A1065B7848BF0123D36200238B4AB4
:1004A80040F2DC5122F813100133082BF7D113A8BE
:1004B80000211C2214F0E7F814F4007A1DBF844BC5
:1004C80019960393CDF80CA0BBF10E0F03D00BF0D7
:1004D800EF03082B02D101238DF85E30022008F0CB
:1004E800DFF818B14088003018BF0120C4F340037A
:1004F8008DF85230C4F340338DF84C30C4F3C03318
:1005080000F001008DF84F3014F400638DF85100AD
:100518008DF8549007D095F8823103F1FF3EDEF153
:10052800000343EB0E038DF85030C4F300438DF8FD
:100538005530FB6AB5F84401ADF862001AF1000ABB
:1005480018BF4FF0010A003318BF01238DF8573048
:10055800C4F300538DF85830B5F84631ADF85C3027
:10056800E004B5F8523148BF4948ADF85A30C4F3F1
:1005780080438DF85330B5F8503144BFB0F84C0182
:10058800ADF86200B3F5FA7FADF8603084BF0023A0
:10059800ADF862304F4895F8D23187F830300023F3
:1005A80087F8313043709DF85E308DF856A0002BE7
:1005B80004F00101C4F3C0028DF84D108DF84E20EF
:1005C8000CBF0023022301B902B1013308EB8308F1
:1005D8004FF0000AD8F81430A3F1020B203304932B
:1005E8003BF8023F4FF6FF72934200F0B1819DF84D
:1005F8005110DAB21B0ADDB279B12748364C00EB4C
:1006080002104168A14208D10189B1F5806F00F05C
:100618009B81B1F5006F00F097819DF8541031B1BE
:1006280011011D4840582D49884200F08D819DF8E0
:10063800551079B11101184C6018645828498C423A
:1006480000F082814168B1F1904F03D1817B082984
:1006580000F07A819DF8521051B10F4800EB02105A
:100668004168B1F1904F03D10189102900F06C81E4
:100678009DF84F10B1B30848174C00EB02104168C1
:10068800A1422FD10189042900F05E812AE000BF30
:1006980060110020D8230020188D0108F0000020E8
:1006A80001010020CC1F002050130020D01F002083
:1006B8002C9501082D110020640900206C250020CC
:1006C80070110020F8920108E0000020921000202C
:1006D800B869010811010020000400480004004026
:1006E800002C01409DF8501051B1BD4800EB02109C
:1006F8004168B1F1904F03D10189202900F024818C
:10070800199C7CB1B64F216807EB021778688842BC
:1007180008D13989A088884200F01681E08888428B
:1007280000F01281022B02D19DF84C3003E0012B1E
:1007380004D19DF84D30002B00F006819DF857102C
:10074800A74B170159B19DF85E1041B9A2F10E01EE
:10075800012904D8D959A348814208BF04259DF826
:100768005810DC1931B19DF85E1019B9043A032A02
:1007780040F2D280012D49D1DFF874820693D9194D
:10078800FF2291F80DE088F8782088F879204868E9
:10079800C8F8884001F108020989ADF868104FF0DF
:1007A800000902218DF86B1088F87C901AA98DF841
:1007B8006AE0059288F83490C8F83890C8F83C90F8
:1007C800C8F84090C8F8749088F87A9088F87B90B8
:1007D8000DF06EFC069B059AD85991784A460DF0A3
:1007E8000BFB204649462A460FF080FC7E4BC8F892
:1007F8008C307E4BC8F89030C8F89490204608F1A9
:100808008C0108F190020FF0C7FC9DE0022D4BD13E
:100818005FFA8AF31C2101FB03FC754BCDF81CC061
:1008280003EB0C09012389F87C3006936C4B89F89B
:100838007DA0D9194FF0000891F80DE0486889F8B3
:100848007E8001F108020989ADF8681089F8868070
:100858001AA9C9F888408DF86AE005928DF86B509E
:100868000DF026FC5E4B059AD859917842460DF05A
:10087800C3FA069B20461A4641460FF037FC5C4BEC
:10088800DDF81CC05B4AC9F88C2003EB0C015A4AFE
:10089800C9F890208C31C9F8948020460A1D0FF0C1
:1008A8007BFC0AF1010A4FE0032D33D19DF8533048
:1008B8004F4D524F3BB195F83280204608214FF6F4
:1008C800FF7200231AE0BDF8602095F83280BDF869
:1008D8006230B2F5FA7F0BD94949B1FBF2F22046F2
:1008E800082192B20DF00DFC464B47F828000AE0AB
:1008F8004549B1FBF2F22046012192B20DF001FC0C
:10090800424B47F82800C36095F83230013385F828
:10091800323019E0042D17D1354DBDF85A2095F81D
:100928003170394B93FBF2F22046BDF85C3001215F
:1009380092B20DF0E6FB95F8313005EB87070133ED
:10094800C7F85C0185F83130049B9B457FF448AEBD
:10095800274C2F4B94F8312084F87C212D4A1778A6
:10096800A7F117020025022A1D709E461BD8A36A0C
:100978002B44D3ED007AF5EE407AF1EE10FA03D16C
:10098800E36A002B4ED126E0234A05EB020C0FCB7D
:100998008CE80F009EF8003010350133C02D8EF81A
:1009A8000030E4D1ECE71D4B13F837808EF8008057
:1009B80003EBC703D3F80490B9F1000FE0D0454525
:1009C800DEDA154A2B0103EB020C4B440FCB013541
:1009D8008CE80F00F3E7124D2B68DB0448D441E0A4
:1009E800188D01080040014059D7000839D800087F
:1009F800E00000203DDE000831D70008A8230020D1
:100A080000127A0059D8000840420F0049D800085F
:100A18008323002064090020A0080020F892010820
:100A280040190020BD4BBE4A13F83700107003EB85
:100A3800C7035D68002DCED000238342CBDAC3EB19
:100A4800C3016A18DFF80483D2F8009041F80890CF
:100A580001EB080C9188ACF8041092798CF8062008
:100A68000133EAE707F0EF03082BAE4B20D121E072
:100A78009EF80020012AF5D9AB4B03EB0212103285
:100A880010339342EED053ED047AB6EE007A67EE57
:100A9800877A43ED047A53ED057A67EE877A43ED5A
:100AA800057A53ED037A67EE877A43ED037AE7E731
:100AB8000E2F08D11A7842F010021A70182F08D198
:100AC8000BF0B8F905E01A7822F010021A70192F05
:100AD800F5E70BF093F92B68DFF874A2DFF874825E
:100AE800924F580358BF924B92485CBF01221A702C
:100AF8009AF8003043F004038AF800304FF40043BA
:100B0800ADF86830D8F8143001224FF0020943F4E8
:100B180000238DF86A2005928DF86B903146C8F84D
:100B280014300DF0C5FA844B8449196000200AF08E
:100B38002DFFD8F81C3043F48043C8F81C30D8F88F
:100B4800103043F48043C8F81030D8F8143043F418
:100B58008023C8F814307B6A23F470037B627B6AB5
:100B680043F4A0037B627B6A23F070637B627B6A39
:100B780043F0A0637B627B6A23F070437B627B6AED
:100B880043F0A0437B627B6A23F470237B627B6A19
:100B980043F4A0237B624FF46043384631461A93EE
:100BA8008DF86C9003234FF000094FF4805B8DF8AB
:100BB8006D3004938DF86E908DF86F9009F094F86D
:100BC800059A049B8DF86C20384631468DF86D30B7
:100BD800CDF868B08DF86E908DF86F9009F084F8B4
:100BE800D8F81030564A43F48043C8F81030D8F883
:100BF800103023F48043C8F81030938823F48053CE
:100C08001B041B0C938093889BB243EA0B039380CD
:100C1800138803F4415343F4457343F003031380EB
:100C2800938823F470631B041B0C43F4E0639380E4
:100C3800938B23F400631B041B0C938307231382F9
:100C480013889BB243F040031380C7F818B02B6891
:100C580003F41073B3F5107F574646467ED0394BE0
:100C6800DFF8F4A0C3F800A07369DFF8C08043F48C
:100C780080237361F36943F40013F361336B23F04A
:100C880010033363336B43F010033363D8F8203019
:100C980023F07063C8F82030D8F8203043F0806320
:100CA800C8F82030D8F8203023F07043C8F8203036
:100CB800D8F820304FF4004243F08043C8F8203081
:100CC8001F9202220DF1B8098DF83C2003228DF8FD
:100CD8003D20402249F8802D0023404649468DF8A2
:100CE8003E308DF83F301A931B931C931D931E932F
:100CF8002093049308F0F8FF8022404649460E925C
:100D080008F0F2FF049B1B931C931D931E932093E2
:100D18001F93237A002B38D00B4B37E0D07A010889
:100D2800F82400205C190020A808002000040048CE
:100D3800D00D002000080048903300203DB2000884
:100D48000038004064100020300E5000F9240020C4
:100D5800803300200010024000540040BB490A784C
:100D68004B46BB4813F900E0BEF11F0F02BF4FF01E
:100D7800FF0E03F800E002F1FF3203F10C0308BF95
:100D8800D2B23C2BEDD10A7069E7B24BB2481A9344
:100D98001AA908F02FFDDAF8003043F00103CAF869
:100DA8000030D5F8008008F40043049308F4006389
:100DB8000593AA4B06934FF0100B184600215A468C
:100DC80013F061FC4FF6FF7203210E92069B8DF81B
:100DD8003C1002224FF0000A18EA02018DF83D206B
:100DE8008DF83EA08DF83FA0984612D04FF0904065
:100DF8004946CDF838B008F077FF0123072288F874
:100E080001A088F8003088F8032088F802309A4654
:100E180000E08A46049BA3B1042291480E924946F9
:100E280008F062FF0C2288F80420072288F80720BF
:100E380001220AEB020388F805A088F806205FFA69
:100E480083FA059BABB120224FF0904049460E92A1
:100E580008F04AFF022288F80C20072288F80F20A1
:100E680001220AEB020388F80DA088F80E205FFA29
:100E780083FAF26A7B4822F4F872F262F26A42F468
:100E8800D872F262726942F0805242F002027261D4
:100E980008F037FC1AA808F009FC734A1A92734A3A
:100EA8001B92BAF1010F4FF0000294BF1146802146
:100EB8001F914FF4807120914FF48061694E219108
:100EC800202122914FF40051304623911AA91C92F7
:100ED8001E922492ADF874A008F0F5FB326842F037
:100EE80001023260624EB26822F04052B260B268CB
:100EF80042F08052B2600A200AF033FDB26822F054
:100F08008042B260B268B260B26842F00042B26039
:100F1800B168574A002931DAFAE7531E092B3FF620
:100F280041AAD8F840003060314658460DF0C0F864
:100F38004FF40063CBF818303C200AF012FD95F806
:100F48008F319945BFF628AADFF814B108224FF46B
:100F58000063CBF8182078200492ABF8283003936C
:100F68000AF0F4FC049A039BABF828207820CBF80D
:100F780018300AF0EBFC09F10109E0E791683D48F7
:100F880021F040519160916841F00051916086686C
:100F98003949314041F468318160D06837490140AE
:100FA80041F40051D160116B0AF1FF3321F00F08B1
:100FB80043EA08031363002001232849421896785E
:100FC800002E00F09D805E1C042B415C92F803E02B
:100FD800DFF89CC0F6B20FD803EB43035A00DCF8E5
:100FE80030A01F2393402AEA030801FA02F348EAD3
:100FF8000303CCF8303053E0092B12D84FF0060821
:10100800053B08FB03F3DCF834204FF01F0808FA0F
:1010180003F822EA080201FA03F31343CCF8343048
:101028003EE00E2B4FF006082AD80A3B08FB03F3D4
:10103800DCF838204FF01F0808FA03F822EA080203
:1010480001FA03F31343CCF8383029E02D110020BE
:10105800D01F00207A25E0000054004038200020EE
:1010680000040048080402404001005048200020C5
:101078000001005000030050E010FCFF07C0FFFD16
:101088000F3B08FB03F3DCF83C204FF01F0808FA7D
:1010980003F822EA080201FA03F31343CCF83C30C0
:1010A8000929DFF83CC315D9DCF81830A1F10A0387
:1010B80003EB4303DCF8181007229A4021EA0202E6
:1010C800CCF81820DCF818200EFA03F31343CCF8F8
:1010D800183014E0DCF814304B1E03EB4302DCF844
:1010E80014103823934021EA0303CCF81430DCF8B9
:1010F800141003320EFA02F30B43CCF814303346C3
:10110800043010287FF459AFB54B9A6842F00102B9
:101118009A601968B24AC907FBD5D368B14E23F063
:101128000203D360D36843F00203D360D36843F06B
:101138000103D360936843F004039360B6F8583111
:10114800002B40F0A687B6F95A21002A40F0A18763
:10115800B6F95C21002A40F09C872B689A0322D5B7
:10116800C8200AF0FEFBAE2008F067F808B108F0C6
:1011780069F8DFF8D08284F87D01C8200AF0F1FB15
:10118800994BC4F8803100210C22404613F07BFAB9
:10119800022388F803300BF040FF0AF0BBFB934BA7
:1011A8000344C8F80830924B92481B68B6F860B1FF
:1011B800B3F85630049300210C2296F85F81DFF8CB
:1011C80048A296F8686113F05EFA002110228A4856
:1011D80013F059FA002384F8843119468AF88531C6
:1011E8000C220AF5C470059313F04DFA834AC4F82B
:1011F800942123200AF0B5FB752001210BAA07F0E2
:10120800EFFD059B002862D07D4ACAF88C217D4AF3
:10121800CAF8902143228AF88821184601210CAA8D
:1012280007F0DEFD9DF8303003F07E038DF8303096
:1012380040B1682B06D101238AF884311D238AF82E
:10124800883144E09DF82C3003F07E03682B8DF83C
:101258002C3037D10223062084F884310146D4F893
:101268008C311AAA98479DF86D1001F001029DF87B
:101278006B1001F001014B0043EA82019DF86920DF
:1012880002F001030B430AD05BB2012B01D100230A
:1012980002E0022B0FD1012384F8853117E05A4B65
:1012A8000C20D3F88C3101214A4698479DF83830F4
:1012B80013F00F0303D103200AF0C4FB07E0042B4B
:1012C800E9D1E4E7702B04BF042384F884314F4B41
:1012D80000221A7094F88421022A994615D1464BA7
:1012E8004B4919604B4959604B49D960042189F829
:1012F80000104A49DFF850A108688AF8002040F039
:1013080001020A604246984603E001200AF09AFB6F
:10131800F2E00A2A134628BF002301229A4040F22D
:10132800B23E02EA0E0EBEF1000F17D112F04D0FB9
:1013380014D0304B3A4A1A603A4A5A6094F88521D8
:10134800002A0CBF6F226E221A72374B04221A70C1
:10135800032318438AF80130086005E0012B4FF099
:101368000002D6D8304B1A70042E6FD8DFE806F08A
:1013780003770303030094F89841234E002C40F0B0
:10138800818614200AF0EDFA06F299137620D0210E
:1013980001220CF0A3FF96F89931582B5FD106F57E
:1013A800CE738821182276200CF098FF31227620FF
:1013B800F4210DF00FF8012386F898311B4B1C4AD5
:1013C8009A601C4A5A6045F6D8125A801A4ADA605E
:1013D8001A4A1A611A4A1C805A6100F053BE00BFAB
:1013E8000001005060110020E6120020404B4C0024
:1013F800A4100020402E002034330020DC690108AE
:10140800E98D0008918D0008E00000209407002075
:10141800058F0008298B000890C1793D58190020D4
:101428009D8F0008718B0008A93300202806002032
:10143800258B0008278B0008878D00089D8D0008E4
:10144800638900088025002070000020012E06D046
:10145800214A8AF80260136843F0040313601E4CA3
:1014680023689B0702D51D4B1B689847D8F80030A6
:10147800584698471A4A002313701A4B93F8541188
:1014880009B189F8001093F8551109B1164801708F
:1014980093F8563103B113702368144913F0080FF9
:1014A80028D0BDF91000DFED126A642290FBF2F338
:1014B80002FB130212B207EE902AB8EEE77A07EEA3
:1014C800903AF8EEE77AE7EE267AB2EE047A67EE1B
:1014D800877AC1ED007A0FE058190020402E0020CD
:1014E800A833002060110020A933002078250020AF
:1014F8008988883C00230B603B7843F002033B70EB
:10150800B64B08229A610A24B44EB38A9BB283F080
:101518000803B38219200AF024FA01200AF036FAE7
:1015280019200AF01EFA013C00200AF02FFA14F0E4
:10153800FF04E9D10823B361A94B9FEDAA8A1B6870
:10154800A94E1B7B00EE103AB8EEC00A20EE080A3E
:1015580005F040FA338807EE903AF8EEE77A27EE7E
:10156800800A13F09FFAA14B9FEDA17A1880338867
:10157800A04E07EE903AF8EEE77A9F4BC7EE277A2F
:101588003046FF211B229FED9D7AC7EE877A9FED9B
:101598009C7AC3ED007A9B4BD3ED037A9A4B67EEA6
:1015A800887A67EE877AC3ED007A13F06CF83470A6
:1015B800964C974B2268012112F0020F18BF7170E8
:1015C80019701FBF032119700221B17030465607E8
:1015D80041BF19784E1C1E70032648BF465412F0AE
:1015E8000A0F0CD01A7804218154511CC9B205265F
:1015F8004654D11C0232D2B21970062181542A688D
:10160800950641BF19784D1C1D70072548BF4554E4
:10161800110608D51978092545548D1C0131C9B220
:101628001D700A2545547B4D6E79082E01D00E2E6B
:1016380004D119784F1C1F700B274754197812F4DE
:10164800803F4FF00C0E00F801E001F101071CBFCC
:10165800DFF8BCE10231FFB21F701FBF8EF8001027
:1016680064494FF00E0E01F807E0510741BF1978A1
:101678004F1C1F70102748BF475419784F1CFFB2E2
:101688004FF0120E12F4806F1F7000F801E00ED0B8
:1016980095F81CE2BEF1000F09D0DFF874E10231C1
:1016A8008EF8001053494FF0130E01F807E0970524
:1016B80041BF19784F1C1F70152748BF4754182E73
:1016C8000DD11978162747544F1CFFB24FF0170E4B
:1016D80000F807E0CF1C0231C9B21F70465411034D
:1016E80048BF19784C4F41BF4E1C1E7019264654EE
:1016F800D20541BF1A78511C19701A2348BF835468
:1017080000219822454812F0BEFF07F0AAFE444B7C
:10171800444945481960454BB5F84E210160444994
:101728001A800023434AD7F800E00B70B5F89411EB
:10173800138093701FFA81F90EF17902DFF80081A6
:101748003D48D8F80060DFF8FCC020F8139006F593
:1017580096764CF823600133122BEFD1374ED6F82A
:1017680000C01CF4805F08BFB5F89A91A0F80690F5
:101778000EF1C90E1378F3B992F80290D37899450F
:1017880019D2B9F1000F08D009F1FF3909EB89091D
:1017980009EB890909F5617306E0013303EB83035B
:1017A80003EB830303F5617392F8019009F10409CF
:1017B8009BB220F8193004327245DBD11CF0080FB7
:1017C80000F0F98095F88E31062B00F2EE80DFE804
:1017D80003F03B3E456C87A7A70000BF0004004804
:1017E8000008002035FA8E3C240000201C08002048
:1017F8000AE81C41711000205007002000401C46D8
:10180800BD37863534330020FC07002058190020E6
:101818007010002060110020A4100020281F002054
:10182800440F0020E6120020FC320020480F002060
:101838007F0E0020083300202431002040190020AA
:1018480038110020C80E002045F2F05201E042F69F
:10185800F822864B1A8007F0A1FEA5E0834B42F6DA
:10186800F8221A8009010A2391FBF3F10023A1F55C
:10187800B0617F4A42F823100133122BF9D17D4A17
:101888007D4911607D4A4020137006F0E3FF00286F
:1018980000F08B8001234FF0070A90F90000784A86
:1018A8008DE808044021774B79E0704B42F6F82226
:1018B8001A80704B744A1A60704B102240201A70BC
:1018C80006F0C8FF002870D001234FF0000990F9F6
:1018D80000006E4A8DE8080240214FF4E1335EE0D3
:1018E800624B42F6F8221A80624B694A1A60634BCF
:1018F800082240201A7006F0ADFF002855D00123B9
:101908004FF0000C90F90000624A8DE80810402161
:101918004FF4E13306F074FE5F4BC3F8B80140E0C2
:10192800524ADFF8A0C1DFF8A0E15C4842F6F8218E
:10193800118052490C22062B0A7010D000238CF813
:1019480000308EF800300370554B1B211970554B31
:101958001A70554B05221A704FF4E1390EE0002138
:1019680001708CF800108EF800104D49DFF85C917A
:10197800212008704B490A704B4A13703D4B4B4A63
:101988001A60402006F066FF78B101234FF0000E80
:10199800474A90F9000040218DE808404B4606F080
:1019A8002FFE003018BF012028B9082005F0D6F80E
:1019B800304B404A1A603368304A13F4804F1FBFD7
:1019C800122111702B493C4818BF086042F20101EE
:1019D800194003F0010003F4005EA1B1234944F665
:1019E800206CA1F800C0BEF1000F06D008211170CC
:1019F8002049DFF8DCE0C1F800E020B10C211170CB
:101A08001C492E48086011781806A1F1040151708C
:101A180040F19D8020482A4BDFF8B890C0F8BC31CF
:101A28004FF0000A5146152200F5E070049389F83A
:101A380001A0C9F804A0C9F808A012F024FE049B6C
:101A4800DFF894B0053B5046CBF8003008F068FE4C
:101A5800D8F80030C9F80C30022006F0FBFEDE464C
:101A6800E0BB802005F07AF86AE000BF6408002037
:101A7800E031002028000020890A0108C41F002046
:101A8800050D0108A0860100750A0108590C010816
:101A98005D0A01080D0C0108E00000206C320020EE
:101AA8006E3200206D3100206F3200201D94000836
:101AB800F10A0108ED0A0108BD0A0108CD0A01086A
:101AC800501300206E3100206D32002090D00300AA
:101AD800DD0A01086C0700208C07002099F8013006
:101AE80090F805C0D4490C2202FB031252786245D3
:101AF80004D00133DBB2042BF4D9002389F8013078
:101B0800DEF8003099F801201B7890F90000002BCE
:101B18004FF00C0303FB021314BF4FF0030E4FF0FA
:101B2800010E00225B78CDF800E00192022106F058
:101B380067FDC24B1860002893D0012008F0F0FD23
:101B48003868BF4B00F5C5721A6008F097FE336815
:101B580013F4007F1AAF5ED0DFF820A3039BCAF806
:101B68000030B84BB8485A6942F480225A619A69E1
:101B780042F001029A61039B1B88ADF830304FF0A8
:101B8800010902230CA98DF833308DF832900CF03E
:101B98008FFADAF80030AC485B88ADF830304FF097
:101BA800000B0CA98DF832B00CF082FADAF800308C
:101BB8004846197A07F04EFEDAF80030586807F000
:101BC80069FDDAF800305B681A93384610238DF8FF
:101BD8006D308DF86CB08DF86E900EF0B1FDDAF8BE
:101BE80000305B7A8DF838300EA803238DF8393031
:101BF8008DF83AB08DF83B900EF084FDD8F800309F
:101C0800924A3C3B1360236843F010032360904BD7
:101C18004FF0FF321A608F4A8F4B13608F4ADFF8FC
:101C280060828033136033680024D90388F8004049
:101C380040F1BB800DF01CF9DFF848C2DFF804A2C0
:101C4800CDF814C040F22A334FF001091A46604615
:101C58002146049388F8009012F015FDDAF8142054
:101C6800DFF824824FF0904042F40032CAF8142082
:101C7800426A22F00F024262426A032142F00602DF
:101C880042624FF4807B02228DF835100CA98DF842
:101C9800342003928DF83640CDF830B08DF8379067
:101CA80008F022F8DAF81810039A41F40061CAF82B
:101CB8001810B8F8001021F45C710904090CA8F890
:101CC80000101D21C8F82C104046A8F828200EA99D
:101CD800A8F830406022C8F814900E92ADF83E4043
:101CE8001094ADF84440ADF84640ADF84840ADF822
:101CF8004A40ADF83C9007F047FED8F8182042F06B
:101D08000802C8F81820D8F8442042F40042C8F85D
:101D18004420DAF8142042EA0902CAF81420AAF684
:101D2800E47A504607F0EDFC384607F0BFFC049B08
:101D38004B4AADF8743080231A92DDF814C01F9313
:101D480010224FF40053504639462393CDF86CC007
:101D58001C921E94CDF880B021942294249407F00C
:101D6800B2FCD8F80C3043F40073C8F80C30DAF839
:101D7800003043F00203CAF800300BA80C238DF89A
:101D88002C308DF82D908DF82E408DF82F900EF078
:101D9800B9FC344B1A68344B43F824200134202C06
:101DA800F7D10CF0A7F80CF0A5F833685A0540F104
:101DB8008C802E4C2E4BD4F80095C3F8009004204C
:101DC80006F048FD0421C4F8040506F01FFD294B60
:101DD80084F808050820C3F8009006F03BFD264B60
:101DE800DFF8A8801860082106F010FD002184F8AB
:101DF80009052C22404612F046FC8E2388F8013053
:101E08004FF07C0BE0234FF07D0A88F8033088F808
:101E180000B088F82BA0DFF878802C2200214046FB
:101E280012F031FC8A2388F801301020A02388F8AA
:101E3800033088F800B02DE0786A01087C2500207E
:101E4800980F00200010024000040048640700209A
:101E5800C8100020441A00208C130020C025002040
:101E6800342C0140F4690108D20D0020E000002064
:101E78004C190020A4190020F01900206807002040
:101E8800D10D0020B5020020002C0140741900205B
:101E9800A919002088F82BA0C4F80C9506F0DAFCE4
:101EA8001021C4F8100506F0B1FC84F814052020B0
:101EB800C4F8189506F0CEFC2021C4F81C0506F0DD
:101EC800A5FC84F820050AF07FFF864A138823F0D2
:101ED80040031B041B0C1380138823F038031B04D6
:101EE8001B0C138013889BB243F04003138000241B
:101EF8009F2332208DF838308DF839408DF83A40DC
:101F08008DF83B4009F02DFD8DF86940764C4FF473
:101F180080580422A4F8288038460EA90EF0BCFB8D
:101F2800C4F818809DF86A209DF86930120242EAC8
:101F380003429DF86B301A436C4B9A426C4B17D096
:101F480008D86C498A420CD001F51A4102318A42FC
:101F580009D01CE068498A4205D001318A4207D07D
:101F680015E0202200E080221A804FF4807202E0FF
:101F78004FF480721A805A809A88198812029A60DF
:101F88004A43DA605D4A012182F8211504E0002203
:101F98001A805A809A60DA60DC6824B3E40AA146A1
:101FA8004FF0000AA2450BDA0AEB04084FEA68086A
:101FB8004FEAC8203946102207F0F0F80F2807DC4E
:101FC80008F0D0FD4D4B4FEAC922C3F824250AE09A
:101FD800002357F82320013257D10133042BF8D1BD
:101FE800C1464446DEE73368454A13F4002318BF68
:101FF8000123137009F08EFC424B18606B79052B96
:1020080002BF414B4FF4C8721A80404B4FF47A72AA
:102018001A803F4BC8221A803E4A137843F00803BF
:1020280013703D4A137823F002031370326840F6A8
:10203800020313406BB1394B39491960394B0321FD
:102048001970394B01211970384900230B80384920
:102058000B80930341BF374B04221A71DA7844BFCF
:1020680042F00102DA70AB683360334B01221A7018
:10207800324A137863F07F0313702FB0BDEC028BE4
:10208800BDE8F08F0426FFF7E3B908F1010AA0467E
:10209800A7E71BB207EE903ADFED296AB6F95A3185
:1020A800284AF8EEE77A07EE103A67EEA67AB6F90C
:1020B8005C31CDED1A7A07EE903AB8EEC77AF8EEB1
:1020C800E77A002127EE267A67EEA67A11701AA819
:1020D8001D498DED1B7ACDED1C7A04F083FCFFF7CA
:1020E8003CB800BF003800400004004818BA20007F
:1020F80014000020152020001740EF00E000002009
:10210800622F00203C080020540F0020A23300203A
:10211800A03300205C190020AB33002044190020B4
:10212800D8120020A81900206800002038100020CC
:102138003A10002080250020D00D00208033002098
:1021480035FA8E3C5C000020142000202DE9F04F69
:10215800A249A34C0A6802F59C432DED028B20335B
:102168002360A04B87B01E780091C6B19E490968CC
:102178008A4240F20581013E1E7001E1D9F8003023
:102188009A48072D98BF595D994B88BF29461B6807
:102198009847032D0CD904EB45050136A880934BCD
:1021A800DFF870921A78F5B2AA421946E6D820E00C
:1021B800D9F8002005F10E0302EB83039988DA8829
:1021C8000028E8D04FF47A73401A5843531A90FB0A
:1021D800F3F040F6C90300F57A70984205DC40F246
:1021E800EE239842B8BF184601E040F6CA0080B214
:1021F800D1E7804B1B6842F2010803EA08087E4BCE
:10220800B8FA88F84FEA58181B68B8F1000F06D1D9
:1022180094F8292084F82820784A5078107094F887
:1022280028701FB1754A177887F0010794F82BB00A
:1022380091F800A00F220326BBFBF6F606EB460634
:1022480084F82A20C6EB0B06D9F80020DFF8CC91D9
:10225800F6B20025554559DA4FEA450C1FB16849D1
:1022680031F8150000E03846918ADFF8B4E1814280
:1022780002D8D18A81421ED25EF82500584983428D
:1022880003D2604931F80C0019E0E8B202920193D8
:1022980003910EF05BFD032D019B029A0FDC03995D
:1022A8004FF0010C91F82AE00CFA05FC2EEA0C0E0E
:1022B80081F82AE003E003F596714EF82510B8F18D
:1022C800000F1CD194F8BC1029F8160031B9BBF1E5
:1022D800020F14D94249012081F8BC00B9F8021054
:1022E800B9F800000844B9F804100844464980B217
:1022F80021F8150000B2032190FBF1F080B24149AA
:1023080009F1060921F815000135A3E794F82A20F8
:1023180039493E4BA2F10F0EDEF1000242EB0E02EC
:1023280084F8D6206AB13A4A1268570109D40A6873
:10233800D9689A60521AC82A1DD9012283F8212027
:1023480019E02E4A0120507010700A689968DA6006
:102358005B68521A9A4282BF2C4B002283F82120D4
:102368000025554507DAE8B20EF0F0FC254B23F8B6
:1023780015000135F5E794F82B30013384F82B303C
:102388001C4B1A6812F4805F984605D0204B1B68D6
:10239800DE0701D40EF024F9009B19681D4B18685C
:1023A800837A002B3ED0013B164D027B35F8133063
:1023B8001AB1C3F53B6308339BB21BB2A3F57A731A
:1023C800B3F57A7FA8BF4FF47A7323EAE37307EE75
:1023D800903A9FED117AF8EEE77A5CE08C330020B2
:1023E800540E00200433002000330020C41F0020B6
:1023F800280000204019002038110020110000207A
:10240800580E002024310020120F0020083300202D
:102418006C100020FC32002000007A44800E00205E
:10242800C80E0020D8F80020150440D5D4F8D820CC
:10243800934E8A1A002A3ADB01F59C422032C6F8EC
:10244800D820904AC07A55798F4A32F8152096F8E4
:10245800DC50013592B292FBF0F205F00F0086F8DD
:10246800DC00304480F8DD201A468848185C0133C7
:102478000244102B92B2F8D112B292FBF3F31BB2C2
:10248800642BA8BF642323EAE37307EE903A9FED19
:10249800807AF8EEE77AC7EE877A7E4A9FED7E7AF1
:1024A80067EE877AFCEEE77A17EE903A1380D8F851
:1024B80000307A4F13F4807F00F00981784BDFF801
:1024C800E491994205D999F8022012B9012289F8B4
:1024D800022099F80220002A00F0F980714A3E781B
:1024E80092F821506A1E554255416F4A1168002DD5
:1024F800C1F38063C6F380060093924614BF4FF081
:10250800000B4FF0030B99F82020052A00F2D98020
:10251800DFE802F0034D527584A1002E3AD0D4F8BA
:10252800F000B4F8F41009F0B0F9012809D15F49B6
:102538005F4A09681268C988642000FB0122C9F84B
:102548001020009B6BB1594A126812794AB10EF0FB
:1025580049FE032289F820204FF47A72C9F81C201A
:10256800D1E7002D40F0AD80514AD9F8101010681D
:102578004C4A88420AD901920EF034FE019A03218E
:1025880082F8201040F6B831D161BCE7012182F809
:102598002010B8E7009B4FF4806013B104F0CEFA26
:1025A80001E004F0BAFA0022C9F8102089E0002DF1
:1025B80046D10EF017FEA6E725B1052289F820209E
:1025C800012000E0284666B1D4F8F020D189394AC4
:1025D800118051809180354909684988D1804FF030
:1025E800020B334A1168D9F81420914201D8002E01
:1025F80064D147F23052C9F81C20032221E03A780E
:1026080042F002023A700DF0EBFF294AD9F81C108B
:1026180012680A44C9F81820042212E0244A9DB11D
:102628001168D9F8182091424BD9234A92781AB9DF
:10263800DAF80020D30744D43A7822F002023A703C
:10264800052289F820205EE71268D9F81C100A4490
:10265800C9F8182035E01549154A09681268C9886B
:10266800642000FB0122C9F810204FF4806000228A
:1026780089F8202089F8032004F04FFA43E700BFC7
:10268800540E00203820002048200020310F002060
:102698000000C842CC10002000C07F44AB330020AB
:1026A800404B4C00083300206C1000207C33002085
:1026B80038110020243100201100002000287FF468
:1026C80022AFBBF1000F02D0584609F07DF98D4DBD
:1026D80005F5C370B5F84E1109F0D7F8834668B907
:1026E8000EF072FD884BC3F800B0C3F804B0C3F80D
:1026F80008B0864B00221A605A609A603B785E07E1
:1027080036D5D8F80030D80632D5814B1B78D90693
:102718002ED4804B9B7893B195F8DE31BBF1000F36
:1027280015D17BB17C4B1A68D4F8F8309B1A002B72
:1027380008DA0DF055FF794B83F8FCB018E0BBF1CF
:10274800000F0DD1102009F03FF901230EE03BB135
:10275800714A12684FF47A7101FB0323C4F8F83008
:1027680094F8FC3023B109F017F9002384F8FC3001
:10277800002295F8DCA195F8DD11B5F896E1B5F8D9
:1027880098C113466648009030F912609B08764558
:10279800C4BF63F07F03DBB201326645B8BF43F0C4
:1027A8004003042AEED194F8FD205C489A4205D1F2
:1027B80090F8FE20F92A04D8013200E0002280F8BF
:1027C800FE2084F8FD30534B564E9A789946E2B96C
:1027D8003368DA0708D5BBF1000F16D13B78DB0761
:1027E80013D50DF063FD10E03B7858070DD54B4B22
:1027F80093F828304BB14C4BDB7833B911B10DF05D
:10280800EFFE02E0BBF1000FF9D094F8FE30434A26
:10281800DFF830B1142B40F0B08099F802301AF18B
:10282800000A18BF4FF0010A6BB392F8FD305F2B16
:1028380011D13B7803F0040303F0FF0113B10DF04D
:10284800CFFE08E00B200291019209F0BDF8019A31
:10285800029982F8FE10BAF1000F14D094F8FD30F6
:102868007D2B10D13B7803F0040303F0FF0213B172
:102878000DF0B6FE07E00B20019209F0A5F8274BF2
:10288800019A83F8FE203B7803F0040303F0FF016C
:10289800002B72D194F8FD30204A572B16D1234BC8
:1028A8004FF47A721A80D8F80030190601D508F06A
:1028B80047F81F4B1B685A0742BF1E4A0A2111805E
:1028C80013F0080359D11C4A138056E0D8F80000C9
:1028D800400739D55A2B37D1184B187820B11970C1
:1028E800174B01221A7048E092F8FF3083F0010379
:1028F80082F8FF300BB10C2000E00D2009F064F8DD
:102908003BE000BF60110020E0220020443300209B
:102918005C1900201100002038110020540E0020FE
:10292800243100206C10002008330020A23300203E
:1029380058190020A0330020501100200721002042
:1029480008210020A41000205D2B00F0E6845B2BFA
:1029580000F002855E2B00F00185562B01D104F0B2
:102968009FFB99F80230002B00F0AB8494F8FD30FF
:102978006F2B40F0A0840DF099FCD8F800305A076E
:1029880032D594F8FF30A3B13B785B0711D5009B93
:10299800B3F90620B5F896319A420ADD336813F088
:1029A800010301BFAD4A32211180AD4A08BF82F848
:1029B800FF303368D8030AD5AA4B1A782AB9AA4A2D
:1029C800127812B9A54A3221118001220BE0A64AD9
:1029D80013784BB13B7803F0040303F0FF011BB9F4
:1029E800A24B117001221A70DBF800A0002333609B
:1029F8000AF17B090AF1CB0B99F8002099F801300C
:102A080019F8010C9A420BD2494608F007FF38B171
:102A180019F8022C012303FA02F2336813433360D6
:102A280009F10409D945E7D1914B1B7843B1914B82
:102A3800914E1A6812F0020F994640F045833CE324
:102A48000AF1CA060AF589793278737816F8010C02
:102A58009A4225D2314608F0E1FE08B3B37896F8D9
:102A680004C0864A96F803A07D480C21013B01FB6F
:102A78000C4103EB43031344D1F808219A420FD0C9
:102A8800C1F80831002390F83421C1F80C31012332
:102A980003FA0CF322EA030381F804A180F8343125
:102AA80006364E45D0D1764B1E68764B1B6802938E
:102AB80094F828300393744B019300230093019BEF
:102AC8001B68002B00F0EE8293F800A0BAF1000F0B
:102AD80000F0E882019A029952688A1A002A0CDBEF
:102AE80001F5FA7201994A60009901228A4094F826
:102AF800341121EA020284F83421039A002A00F0F2
:102B0800D182019A597812F8042C0432D2B20029E1
:102B180040F087825D4931F91210B5F8942102F12D
:102B2800C800814202DD93F802B015E0C83A91422C
:102B380003DA9978C1F1000B0EE0009A0123934063
:102B480094F8342122EA030384F83431029B019A71
:102B580003F5FA735360A5E294F83431009A1341EF
:102B6800D90700F19F82BBF1000FCCBF02200120E2
:102B780008F050FF0AF1FF33DFF8E490132B00F25E
:102B88008982DFE813F01400250037004B00640049
:102B98008B00F2005501BC01EC011C0287024B00BE
:102BA8005A008B00F2005501C20027018C0196F8EB
:102BB8000090D944B9F1FA0FA8BF4FF0FA0929EAF1
:102BC800E979304686F8009008F00EFE01200FE003
:102BD80096F80190D944B9F1640FA8BF4FF0640981
:102BE80029EAE979304686F8019008F0FDFD0220CF
:102BF8004946E1E196F803A0DA44BAF1640FA8BFA8
:102C08004FF0640A2AEAEA7A86F803A03046D9F82F
:102C1800381105F025FE03205146CDE1717959445C
:102C28006429A8BF642121EAE17171710D2008F0BF
:102C38005DFEBAF10D0F00F02D82317959446429F7
:102C4800A8BF642121EAE17131710E20B4E1B179A4
:102C5800594481F30801B1710520ADE1E02000205D
:102C6800540E002006210020072100200821002002
:102C7800AD3300206C100020581900204C6E01085C
:102C8800D0100020381100205C0F002024310020D3
:102C980000007A440000C84200000000D9F83C3126
:102CA8001A78022A22D107EE90BAF8EEE77AB2EE45
:102CB800040A87EE800AD3ED097A30EE270AB5EECA
:102CC800C00AF1EE10FA09D45FED0E7AB4EE670A85
:102CD800F1EE10FAC8BFB0EE670A01E01FED120A64
:102CE80083ED090A0F2008F0EBFD0AE099785944B2
:102CF800C829A8BFC82121EAE17199700F2008F0FE
:102D0800F5FDBAF10F0F00F0C581D9F83C311A78FA
:102D1800022A20D107EE90BAB8EEE78AB2EE040A8A
:102D280088EE008A93ED080A38EE000AB5EEC00A6C
:102D3800F1EE10FA09D45FED297AB4EE670AF1EEE4
:102D480010FAC8BFB0EE670A01E01FED2D0A83ED47
:102D5800080A122058E159785944C829A8BFC8213F
:102D680021EAE1715970122026E1D9F83C311A782C
:102D7800022A20D107EE90BAB8EEE70A5FED3B7A57
:102D880093ED0C7A80EE270A30EE070AB5EEC00AFA
:102D9800F1EE10FA07D4B4EE670AF1EE10FAC8BFE4
:102DA800B0EE670A01E01FED440A83ED0C0A10201B
:102DB80008F086FD0AE0197B5944C829A8BFC82134
:102DC80021EAE1711973102008F090FDBAF1100F93
:102DD80000F06081D9F83C311A78022A1ED107EE3A
:102DE80090BAB8EEE78A5FED557A93ED0B0A88EE54
:102DF800278A38EE000AB5EEC00AF1EE10FA07D4B9
:102E0800B4EE670AF1EE10FAC8BFB0EE670A01E047
:102E18001FED5F0A83ED0B0A1320F5E0D97A5944B8
:102E2800C829A8BFC82121EAE171D9721320C3E0DB
:102E3800D9F83C311A78022A22D107EE90BA1FED50
:102E48006C0AF8EEE77A87EE800AD3ED0F7A30EE57
:102E5800270AB5EEC00AF1EE10FA09D45FED737ACD
:102E6800B4EE670AF1EE10FAC8BFB0EE670A01E0E7
:102E78001FED770A83ED0F0A112008F021FD0AE003
:102E8800997D5944C829A8BFC82121EAE1719975DB
:102E9800112008F02BFDBAF1110F00F0FB80D9F8D2
:102EA8003C311A78022A20D107EE90BA1FED880A21
:102EB800B8EEE78A88EE008A93ED0E0A38EE000A2B
:102EC800B5EEC00AF1EE10FA09D45FED8E7AB4EED1
:102ED800670AF1EE10FAC8BFB0EE670A01E01FED0D
:102EE800920A83ED0E0A14208EE0597D5944C829B0
:102EF800A8BFC82121EAE171597514205CE0D9F80E
:102F08003C311A78022A20D107EE90BAB8EEE78A47
:102F1800B2EE040A88EE008A93ED0A0A38EE000A37
:102F2800B5EEC00AF1EE10FA09D45FEDA67AB4EE58
:102F3800670AF1EE10FAC8BFB0EE670A01E01FEDAC
:102F4800AA0A83ED0A0A09205EE0D9785944C829FB
:102F5800A8BFC82121EAE171D97009202CE0D9F86D
:102F68003C311A78022A1ED107EE90BAB8EEE78AE9
:102F78005FEDB87A93ED0D0A88EE278A38EE000ADD
:102F8800B5EEC00AF1EE10FA07D4B4EE670AF1EE16
:102F980010FAC8BFB0EE670A01E01FEDC10A83ED61
:102FA8000D0A0A2030E0597B5944C829A8BFC82116
:102FB80021EAE17159730A2008F098FC6AE0D9F80F
:102FC8003C311A78022A22D107EE90BA1FEDD00AB6
:102FD800B8EEE78A88EE008A93ED100A38EE000A08
:102FE800B5EEC00AF1EE10FA09D45FEDD67AB4EE68
:102FF800670AF1EE10FAC8BFB0EE670A01E01FEDEC
:10300800DA0A83ED100A0B2008F05AFC42E0D97D59
:103018005944C829A8BFC82121EAE171D9750B20F4
:10302800CAE7012936D19878BD4B33F91230B3F588
:10303800617F05DB40F633029342A8BF134601E0E7
:103048004FF46173BAF10C0F24D14FF4966292FBDE
:10305800F0F0B44AA3F5617393FBF0F35FFA83F9D8
:1030680013784B4516D0B9F1040F34BF4B460223F1
:103078001370AD4A0AFB035303F2B673136003F0EF
:1030880039FE5046494608F031FC09F10100C0B24A
:1030980008F0C0FC009A0123934094F834211343AC
:1030A80084F83431009B01330093019B0C33019366
:1030B800009B042B7FF403ADB9E4D8F80030DA059F
:1030C80010D59A4BDB786BB133689B070AD5984BC0
:1030D8001B8813F0010A0AD10EF076F8012003F0DC
:1030E8002DFD04E0012003F018FD012300E000237A
:1030F800D9F8002050070DD563B1012003F00DFD6C
:103108008B4B1B88990708D40EF05EF8022003F059
:1031180015FD02E0022003F000FD33689A0609D489
:10312800D9F800301B0540F194804FF4807003F00B
:1031380005FD92E07F4BDFF8F8A11B7813F0020F32
:1031480053D07D4B1B78042B4FD9D9F8003013F49A
:10315800007B0FD0BAF80030DE063AD4102003F016
:10316800EDFC202003F0D9FC7448011D07F03CFB5E
:1031780002232AE0BAF8006006F01006B6B22EB1B3
:10318800102003F0CAFC012684F840B1D9F80030B9
:10319800580512D5D4F8443169495A89B1F9003033
:1031A800002BB8BF5B42934207DAB1F90230002B1B
:1031B800B8BF5B429342C0F20981BAF80030990661
:1031C80008D5202003F0A9FC002384F8403101260B
:1031D80000E0002694F84831BBB90E2008F0F4FB53
:1031E800584B012283F848210FE0BAF8003003F069
:1031F8003003002B94D0102003F08FFC202003F024
:103208008CFC002384F8403101E0002E88D04E4B1E
:10321800002003F1280603F150044C4A002122F84B
:1032280010104B4A596022F810100432716022F8CD
:10323800101000221A609A603260B26022606160E9
:10324800A26014331436143400287FF469AF0120C7
:10325800E3E74FF4807003F060FC6B79082B01D032
:103268000E2B02D1402003F058FCD8F800305A0544
:1032780040F1C28095F81C321BB93B7813F0040F5B
:1032880003E0D9F8003013F4002F0BD0314B0022A3
:103298001A703C2006F0CAF9002800F0AD800CF046
:1032A800BBFAF6E709F090FD07B0BDEC028BBDE86C
:1032B800F04F06F0D6B8BAF1000F02D07E2B3FF4DB
:1032C8005AAB94F8FD30972B06D11E4B4FF4C872B9
:1032D800A3F80021FFF751BBA72B06D1154A137895
:1032E80043F004031370FFF748BB0022BB2B059281
:1032F80001D1022303E0B72B04D14FF6FE73ADF8DA
:1033080016303BE0BE2B01D1022303E0BD2B4CD18C
:103318004FF6FE73ADF8143030E001201FE000BF17
:1033280024310020202E0020D01000200833002057
:10333800201A00205C19002062190020D8100020F3
:1033480058110020540E0020A00F0020A4330020A4
:1033580018100020C91F0020022000E003205FFA97
:1033680080F909F1FF3385F8B43703F029FC03F03D
:10337800E5FC484608F04EFBFFF7FFBADBF80030E3
:10338800BDF81410B3F858200A44A3F85820BDF823
:103398001610B3F85A200A44A3F85A2003F080FE06
:1033A800002384F8FE30FFF7E8BA792B04D1154AD8
:1033B800D37823F0010306E07A2B7FF4DEAA114AC2
:1033C800D37843F00103D370FFF7D7BABAF80030C7
:1033D8009B063FF5FFAE202003F0B0FB0A480B4BDD
:1033E800011D1A685B684360026007F0FDF9084B2D
:1033F800012683F84061EDE607B0BDEC028BBDE81D
:10340800F08F00BF80250020E01000206419002004
:10341800540E00202DE9F04FC14BB3F90610C14BF3
:103428002DED028B1F687A8991B0914201930EDBD2
:10343800B1F5FA6FFC79BDBF8B1A6343A2F5FA6444
:10344800C4F16404BCBF93FBF4F4643400E0642466
:10345800B54AB64BB2F894A192F95E211868049067
:1034680092B20592054600220293AD4B33F9123011
:103478000393CAEB030303F2F31640F2E6308642E5
:103488004FEA420B03D8002BB8BF5B4201E04FF470
:10349800FA73022A049E4FF064002FD096F811E1C7
:1034A800BEF1000F04D07345CCBFCEEB030300235D
:1034B800DFF8C0E293FBF0FC6FF063093EF81C8074
:1034C8009B4E09FB0C390CF1010C3EF91CE00FFA7C
:1034D80088FCCCEB0E0E0EFB09FE9EFBF0FEC644EC
:1034E80026F80BE0BE1836797343924E93FBF6F339
:1034F80064339BB2634393FBF0F02EE096F812E13D
:10350800BEF1000F04D07345CCBFCEEB03030023FC
:10351800DFF84C8293FBF0F06FF0630C0CFB003982
:1035280038F910E00130002B38F91000CEEB00001C
:1035380000FB09F9BDF8140099FBFCF9CEEB090969
:1035480019FB00F97A48A0F80490B879B8BF5B4233
:103558004343784893FBF0F064306B78764E4FF035
:10356800640E434393FBFEF3B354744EEB7A434328
:1035780093FBFEF3B3546B7D6D4E5843704B90FB39
:10358800FEF0022A98546F4B0FD183F802E0039B98
:1035980053450EDB644CB4F89621914215DBB1F526
:1035A800FA6FA8BF4FF4FA6110E09C54039B53458F
:1035B80004DA36F80B305B4226F80B300132032A66
:1035C80005F101057FF451AFE4E71146891A4FF47C
:1035D8007A73DFF8A4E1564D59436FF06303C2F5DF
:1035E800FA626427B1FBF2F191FBF7F23EF81200A0
:1035F80003FB0211013203B23EF91220D21A5143E1
:1036080091FBF7F30344F3804F4B1B88580635D5DD
:103618004E4B4F4A1B881288DFED4E7A9B1A1BB21D
:1036280008EE103AB8EEC88A28EE278AB0EE480AA3
:1036380003F0D0F9F0EE408AB0EE480A03F067F9DB
:10364800B5F9023006EE903AB5F90030F8EEE66AC0
:1036580007EE903A20EE667AF8EEE77AA7EEA87AB7
:1036680067EE807ABDEEC77AE6EEA87A17EE103AD2
:10367800FDEEE77A2B8017EE903A6B80364D2B687B
:10368800990740F1A180354B354F1A687B6945F29F
:103698000721D31A8B4240F397807A6106F03AFCEF
:1036A800304BDFF8D8901A78032A9846B9F80030DA
:1036B80022D10A2B2AD90023282088F8003008F0C4
:1036C80050F906F027FC284B188806F00DFC274B0C
:1036D8001A68D37890FBF3F001300828244BA8BF70
:1036E80008201870537980B213FB00F33B831379D9
:1036F80013FB00F0788309E00A2B07D803231C4A40
:1037080088F80030002313703B837B8398F80030DF
:10371800144A012B3DD033D3022B4CD054E000BFC8
:1037280024310020D010002060110020A4100020B7
:10373800581100200CFEFFFF682300202E100020E7
:1037480080230020B4220020201A002050110020DD
:10375800602F002035FA8E3C401900208C33002061
:1037680020100020A8190020502000204419002013
:1037780068000020842300204A1A002048190020ED
:103788003A8BB9F800309A421EDD012388F80030E0
:103798000FE0B9F800107B8B8B4202DD0223137017
:1037A8000FE09E4B1B8B0133994202DD00231370FF
:1037B8000AE0082006E07B8BB9F8002001339A4222
:1037C800E3DC072008F000F92D682A0573D5944B2F
:1037D800924F1B68FA69C2EB030845F2072290452D
:1037E80069DDFB618F4BB6F906B0D3F80090B4F8E9
:1037F8004E1199F80A308C4E012BABF57A7B03D029
:1038080042D3022B20D041E0884B396A5A7B884B3F
:1038180033F81220082092B291FBF0F3C91A8B18E2
:10382800BA843B6240F6E44293FBF0F39BB2534305
:10383800B9F80820C2EB13334FF47A725343B9F93D
:10384800062093FBF2F320E07A4BB9F808A01B7826
:10385800C6F800A05B0719D5774808F016F820B914
:1038680015F0100F18BF4FF0000B32220BFB0BF3B3
:1038780093FBF2F3B9F906205B445A434FF47A7389
:1038880092FBF3F3534400E000233360D7E90A01C5
:1038980033686A4A03FB08F84FF47A7398FBF3F825
:1038A80010EB080041EBE8710023C7E90A010DF0AD
:1038B800D1FC634B1860634E3368DF0427D52D06AF
:1038C80022D5614B1B7898071ED5604B18780428C1
:1038D8001AD900225E4BD7180521951C4FF00A0E05
:1038E800122AD154E9B287F801E004D0B0EB510FA5
:1038F8002A46EFD800E014215A18322002F8010CA9
:10390800FF225A540F2000E00A2008F05DF8514DBC
:103918002A68002A50D0504B504F186839688142A5
:10392800984649D84E4BDFF8449119785268E1B966
:103938004FF0010A83F800A0B9F80030D35C23B334
:10394800504608F023F8474B83F800A00DF054FACE
:10395800B9F80030CBB92B681B78053B534514D810
:1039680007F0D8FF404B18600FE04FF0000A83F8CB
:1039780000A0B9F80030D35C3BB1504608F006F817
:10398800384B83F800A00DF037FA2A68B9F80030F0
:1039980052683648D25CFE2A01D100230BE0FF2A88
:1039A80002D107F0F9FF07E0D8F800500A2111FB0F
:1039B80002523A60013303801E4D2B78590703D514
:1039C8002B4B08221A856BE03268D2075CBF43F0A4
:1039D80001032B701C4B234A1B781B075EBF2B78F7
:1039E80023F001032B70234B1B6813F0040F02D044
:1039F8002149098851B92149098809B19F0705D486
:103A08001F4B1B88003318BF0123DBB3022313703D
:103A18002B7823F001032B7039E000BF2010002021
:103A28008C33002044190020501900203820002031
:103A380048200020AB330020E6120020407E05001D
:103A4800541900206C1000205C1900206219002015
:103A58004C2E0020A4230020381100209C23002095
:103A6800982300202C33002000310020A0230020C0
:103A78000004004858190020A0330020540F0020EB
:103A8800A23300202978CE0758BF0223137007F00D
:103A980041FFA94B1B68C01A002801DB0DF0ACF9E7
:103AA80009F092F9A54B04931E78002E00F0B3801C
:103AB800A34F3B68002B00F00B87386808F016F816
:103AC800002800F005879E4B9E4C186808F00BF8FC
:103AD800092801D03F2852D14FF000092668DFF8A5
:103AE8009C824D4636B19848D8F80010324610F0FE
:103AF80017FE10B9C14605B94546944B08F11008A0
:103B08009845EFD3EDB1D5F800C0D9F80080236807
:103B18001CF803E018F80300704512D15A1C8A49B2
:103B280058B92D2B09D8DFF81CE2CEF800204FF049
:103B3800200E01F803E0885403E001F803E0226056
:103B4800E5E723680BB14D4510D081480BF070FFB5
:103B58004D4507D855F8100B0BF06AFF09200BF0FC
:103B68005FFFF5E77B480BF063FF002623689E4262
:103B7800A3D2754B985D0BF053FF0136F6E7236827
:103B8800002B40F08986042840F0C1866E4808F072
:103B980097FB00F09DBEDFF8E8A1DAF8000007F017
:103BA800A5FF28B3DAF8000007F09DFF6A4B1B68F1
:103BB80093F848208346002A3ED1242875D1012253
:103BC80083F84820DFF890A1DAF8003093F848200D
:103BD8000392062ADFD193F8490000F025FF002858
:103BE80000F08B800BF066FE3B68002283F84820CB
:103BF8005A4B93F8373053B158F8060004F0E2FCFA
:103C080008F0D8F802F0B2FF554B564ADA604C3645
:103C1800982E00F05D86DFF86C8106EB080393F8B8
:103C28004A20012AF3D14C4FDFF854913B6056F8F3
:103C38000830C9F80030AEE7012A04D14D2814BF76
:103C480000220222BCE7022A04D13C2814BF002229
:103C58000322B5E7032A0AD140284FF000029FBF8C
:103C68001A71DA715871987198BF0422A8E7042A6A
:103C780008D19A7983F8490080EA020B83F806B0E4
:103C880005229DE7052A9DD159791A79914299799A
:103C980006D941409971511C19711344187291E762
:103CA80081420CBF062200228AE72B782E4A590748
:103CB80088D42328DAF8003012D10392049A2B48CA
:103CC800012111701E490B6024490B630BF0B0FEF3
:103CD80020480BF0ADFE039A137843F002031370EB
:103CE800234B1B681B785B4501BF224B224A1A6095
:103CF8001B4B04BF1B4ADA6064E7DAF8002092F82D
:103D080049B0BBF14C0F00F0948400F2CC80BBF1B9
:103D1800350F00F054826AD8BBF12B0F00F0618494
:103D28004CD8BBF1250F00F037842DD8BBF1230FF9
:103D380000F00A8200F0E7BD30330020AD330020E8
:103D48003C2E0020BC2500208C250020107A01087C
:103D58002191010826910108001A00202010002056
:103D680000ED00E00400FA05AB330020569101088D
:103D7800CC1F0020FC9F0020EFBEADDE307801088C
:103D8800041A0020281F0020BBF1270F00F00B8425
:103D9800BBF1290F40F0B7850BF068FDA4F87E0150
:103DA8000BF064FDA4F880010BF056FD84F8820145
:103DB8000BF05CFDA4F8840100F069BDBBF12F0F86
:103DC80000F0D48405D8BBF12D0F00F00E8400F06C
:103DD8009ABDBBF1310F00F0DE84BBF1330F40F028
:103DE80092850BF039FD84F8900100F050BDBBF1CD
:103DF800410F00F075841CD8BBF1390F00F0E08347
:103E080005D8BBF1370F00F0788400F07CBDBBF11A
:103E18003C0F00F0F780BBF13E0F40F074850BF0CB
:103E28001BFD84F8DE010BF017FD84F8DD0100F0BE
:103E38002EBDBBF1440F00F0E28427D8BBF1430F3D
:103E480040F061850BF008FD0023A36060710BF062
:103E580017FDA3681843A0600BF0FEFC84F88E01E0
:103E68000BF004FDA4F858010BF000FDA4F85A016A
:103E78000BF0FCFCA4F85C010BF0F8FCA4F87E0144
:103E88000BF0F4FCA4F8800100F001BDBBF1480F71
:103E980000F01983BBF14A0F40F035850BF0E6FCC2
:103EA800A08100F0F4BCBBF1D10F00F0368328D814
:103EB800BBF1CC0F00F0AB8113D8BBF1C80F70D0A9
:103EC80005D8BBF14E0F00F0C18300F01CBDBBF15B
:103ED800C90F00F0FB82BBF1CA0F00F0A28000F00E
:103EE80012BDBBF1CE0F00F0E182C0F0D682BBF16B
:103EF800CF0F00F0F981BBF1D00F00F0C38200F0C2
:103F080002BDBBF1D90F00F0AC820ED8BBF1D30FC4
:103F180041D02DD3BBF1D40F00F02A82BBF1D60FCC
:103F280040F0F1844FF0000917E2BBF1F20F00F006
:103F38006D8213D8BBF1EF0F40F0E584DFF884936E
:103F4800D9F800A00BF092FCAAF85A00D9F8009012
:103F58000BF08CFCA9F8580000F099BCBBF1F30FEA
:103F680000F05284BBF1FA0F00F0A98200F0CBBC3C
:103F78002B7803F0040303F0FF09002B40F087843B
:103F88000BF06AFC022884F8B40740F28182CA4B1D
:103F980083F8B4977CE20BF069FCC84B988600F074
:103FA80076BC92F805904FEA5909B9F1120F03D976
:103FB80005F038FB00F06BBC4FF0000ACA4507D289
:103FC8000BF054FC07AB23F81A000AF1010AF5E7D5
:103FD8004A4600234B4507DA07A931F81300B849C8
:103FE80021F813000133F5E7122A05D0B44B00215C
:103FF80023F812100132F7E7B04B012283F836207C
:1040080000F045BCDFF8BC92D9F800A00BF024FC06
:104018008AF80000D9F80030187807F0A7FF00F0F8
:1040280036BCA84B1A681278022A4FF0000A994643
:104038006FD1D9F800B00BF00FFC07EE900AF8EE3C
:10404800677AB2EE048AC7EE887A0BEB8A0BCBED5F
:10405800087AD9F800B00BF0FFFB07EE900A9FED45
:104068009A7AF8EE677A0BEB8A0BC7EE877ACBED74
:104078000B7AD9F800B00BF0EFFB07EE900A9FED32
:10408800937AF8EE677A0BEB8A0BC7EE877A0AF118
:10409800010ABAF1030FCBED0E7ACAD1BAF1070FB4
:1040A800D9F800B01CD10BF0D7FB07EE900AF8EE58
:1040B800677AC7EE887ACBED117AD9F800B00BF0A1
:1040C800CBFB07EE900AF8EE677AC7EE887ACBED5D
:1040D800127AD9F800B00BF0BFFB8BF84C0012E055
:1040E8000BF0BAFBD3448BF80100D9F800B00BF001
:1040F800B3FBD3448BF80B00D9F800B00BF0ACFB42
:10410800D3448BF815000AF1010ABAF10A0FC5D198
:10411800BDE3D9F800B00BF09FFBD3448BF8010046
:10412800D9F800B00BF098FBD3448BF80B00D9F802
:1041380000B00BF091FBD3440AF1010ABAF10A0F5F
:104148008BF81500E5D1A2E30BF086FB1328834614
:104158003FF62EAFDFF86CA1DAF800900BF07CFB8D
:1041680000235B4A0C2101FB0322117A814222D1F0
:104178000FFA8BFB09EB8B09137889F879300BF070
:104188006BFB89F87A000BF067FB89F87B000BF072
:1041980063FB504B504A1A6089F87C004F4BDAF8A1
:1041A800000018600021793007F05EFB4C4B80F06E
:1041B800010018706BE301331C2BD2D1F8E60BF029
:1041C8004BFB0B2881463FF6F3AE3E4BD3F800A0DD
:1041D8000BF042FB03283FF6EBAE039B03FB09AB56
:1041E8008BF8CE000BF038FB8BF8C9000BF034FBD2
:1041F8008BF8CA000BF030FB8BF8CB000BF02CFBD4
:104208008BF8CC000BF028FB8BF8CD003FE35379FB
:10421800092B7FF6CDAE019BD3F800900BF01CFB69
:10422800019B89F80000D3F800900BF015FB89F882
:1042380001000BF011FB019B64281B68A8BF6420D8
:1042480018710BF009FB019B64281B68A8BF642048
:1042580058710BF001FB019BFF281B68A8BFFF20CA
:1042680098710BF0F9FA019B6428D3F8009028BFE5
:10427800642089F807000BF0EFFA019B89F8020027
:10428800D3F800900BF0E8FA019B89F80300D3F803
:1042980000900BF0EBFADAF80030A9F80A005B7925
:1042A8000A2B40F2F4820F4BD3F800900BF0D4FAAB
:1042B80089F80800EBE200BF601100202010002000
:1042C80028320020A41000200000C84200007A44D0
:1042D800B86E01088C0F0020A0120020900F00205B
:1042E80013000020D01000200BF0C0FA6FF4AF626A
:1042F80083189BB2C62B98BFA4F894010BF0B6FAAA
:10430800A4F840010BF0B2FAA4F842010BF0AEFA9F
:10431800A4F844010BF0AAFAA4F8D6010BF09CFA11
:1043280084F8EB010BF098FA0BF096FA84F8EC019C
:104338000BF092FA84F883010BF08EFA84F890015E
:104348000BF08AFAD14BD3F800900BF08FFA00EB00
:1043580080004000A9F8560032E10BF087FACC4BF8
:1043680023F8190009F10109B9F1080FF5D18EE216
:1043780053790F2B7FF41CAE0BF06EFA0728814699
:104388003FF616AE029BD3F800A00BF06FFA0E238F
:1043980003FB09F9CA44029BAAF81901D3F800A043
:1043A8000BF064FACA44029BAAF81B01D3F800A0D8
:1043B8000BF05CFACA44029BAAF81D01D3F800A0CE
:1043C8000BF04AFACA44029B8AF81F01D3F800A0EE
:1043D8000BF042FACA44029B8AF82001D3F800A0E5
:1043E8000BF03AFACA44029B8AF82101D3F800A0DC
:1043F8000BF032FACA44029B8AF82201D3F800A0D3
:104408000BF03EFAD144C9F8230140E20BF024FA3C
:104418000F2881463FF6CCADC9EBC9090BF01CFA51
:1044280004EB090303F1D00983F8D0000BF014FA68
:1044380089F801000BF010FA89F802000BF00CFA69
:1044480089F803000BF008FA89F804000BF004FA65
:1044580089F805000BF000FA89F8060007F0EAFC75
:1044680015E20BF003FAA4F848010BF0FFF9A4F8E1
:104478004A010BF0FBF9A4F84C010BF0F7F9A4F88A
:104488004E0104E22B785B0700F101820AF036F84E
:1044980002F096FB02F052FCF9E12B78580700F184
:1044A800F6817C4B4FF4C8721A80F0E12B785907DB
:1044B80000F1ED81784A137843F004032BE02B7860
:1044C8005A07E5D51FE206F09BFBE0E10BF0C4F9C3
:1044D800714B1A7810B142F0020201E022F0020298
:1044E8001A700BF0B9F96D4BDFF8D09118700BF01A
:1044F800C7F9C9F800000BF0C3F9C9F804000BF0BC
:10450800B5F9674B18800BF0B1F9664B664A18800D
:10451800137843F002031370B9E10BF09DF903908F
:104528000BF0AEF983460BF0ABF982460BF0A8F915
:1045380081460BF09BF90BF099F90BF08DF9039B71
:10454800A3B95A4B1020C3F800B0C3F804A002F076
:10455800E4FA514A137843F001031370B9F1000FDC
:1045680000F09581524BC3F8009090E1102B40F079
:104578008E81504BC3F800B0C3F804A0B9F1000F06
:1045880002D04B4BC3F800904A484B4B0222011D06
:104598001A7006F029F97AE1A0600BF071F9A368A6
:1045A8001843A06073E10BF061F9A4F858010BF00F
:1045B8005DF9A4F85A010BF059F9A4F85C0166E119
:1045C8000BF04AF984F878010BF046F984F87C017D
:1045D8000BF042F984F87B010BF03EF984F87D0179
:1045E80055E10BF039F9607151E10BF035F984F8B8
:1045F8008E010BF03BF9A4F898010BF037F9A4F8F9
:1046080094010BF033F9A4F896010BF025F93B68F7
:1046180084F88F015B79DFF8A890082B40F2378186
:104628000BF024F9A9F89A010BF020F9A9F89C01DC
:104638002DE10BF011F984F8D4010BF00DF984F891
:10464800D5010BF013F9A4F8D60120E192F80590F2
:104658000323B9FBF3F9B9F1120F3FF6A9ACDFF860
:1046680060A04FF0000BCB4580F011810BF0F4F8FF
:104678008AF89E010BF0FAF840F2ED23984221DD0A
:1046880040F6CA039842A8BF18461DE0A4100020AF
:10469800222E0020540F00205C19002062190020EF
:1046A800601900205E190020D6100020D8100020C4
:1046B800E8100020E0100020940F0020641900206A
:1046C8006011002040F2EE20A0F2EE2019230BF139
:1046D800010B90FBF3F00AF1020A8AF89D01C2E788
:1046E80081460BF0B9F804EB090309F10109B9F1A6
:1046F800080F83F88601F4D1C9E053794FF0070A0F
:10470800B3FBFAFACAEBCA029B1A13F0FF0F7FF445
:104718004FAC5FFA8AFA0AF1FF3A5FFA8AFABAF1FD
:10472800FF0F00F0B4800BF097F85FFA80FB4FFAA8
:104738008BF003F0B5FF814600283FF439AC80F8D0
:1047480000B00BF093F8A9F802000BF085F889F88F
:1047580004000BF081F889F805000BF07DF889F862
:1047680007000BF079F889F80600D4E7DFF8B4926F
:1047780009F1400A0BF07AF8A9F8AC020BF06CF8D2
:1047880089F8AE020BF068F809F1040989F8AB0260
:10479800D145EFD17BE00BF05FF81F2881463FF64B
:1047A80007AC3B685B79082B7FF402AC0BF05EF832
:1047B80009F18A0904EB890900F03F00A9F806000D
:1047C8000BF054F8B9F80630800100F4FE50184395
:1047D800A9F806000BF040F8000189F804000BF076
:1047E8003BF899F8043000F00F00184389F80400EA
:1047F8000BF032F889F805000AF03AFB47E0784BED
:10480800012283F8372042E00BF026F8FF28824681
:1048180022D100238DF81B309DF81B30072B14D8AC
:104828009DF81B006F4A9DF81B3052F8300002EBD0
:10483800C30301215B68994089B2042203F048FE52
:104848009DF81B300133DBB2E4E767484FF40041C1
:10485800002203F03DFE1AE007283FF6A9AB00202E
:104868000BF04CF80BF026F83A68106803F0AAFE33
:10487800D9F800000AF0D0FF504603F037FE0A20AE
:1048880007F06FF804F0EDFD3A6882F849B00020AF
:104898000BF034F8FFF7A6B90C283AD00A283CD117
:1048A800524D53480BF0C4F8284623210FF021FF3E
:1048B80008B1401B20602368002B31D14B4823608E
:1048C800002130220FF0DFFE049B1B78002B5AD109
:1048D800484B1B689B060FD5474B41491B688A6BA1
:1048E8009A1A002A08DB454A1278042A82BF03F57F
:1048F800123303F5F8738B63414B9B68002B69D027
:104908004048984766E004F08DFEFFF76BB90C2825
:1049180047D13D480BF08CF835E00D2835D1BFE77D
:104928005A1EA95C202901D11346C5E72F4A2360E6
:104938000021D154354B364DD3F80090D5F800A05E
:10494800DFF8A88050460FF0E2FE064632464046A1
:1049580051460FF0E5FE2F4A28B918F806304B44A7
:104968005B78580703D010359542E7D306E09542A7
:1049780004D2701CEB684044984702E026480BF0CC
:1049880057F800239AE7254807E07F280DD1013B17
:10499800164A234823600021D1540BF049F8FFF749
:1049A8008CB87F2804D1FFF788B82F2B3FF685A84D
:1049B800A0F12002D2B25E2A3FF67FA813B92028C0
:1049C8003FF47BA85A1C2260084AD0540BF028F800
:1049D800FFF773B811B0BDEC028BBDE8F08F00BFD4
:1049E80020100020EC940108000800488C250020C5
:1049F80085A00108581900208C3300206219002076
:104A0800343300205C1000202B9101087400002032
:104A180030780108107A01083691010826910108BA
:104A280052910108601100202DE9F0472DED028B0D
:104A38004B28A0B0044600F0DE8500F2B380302891
:104A480000F04F8651D8222800F0318423D803285B
:104A580000F05E8114D8012800F04E81022840F051
:104A6800D98604200AF04AFF43200AF012FF4C209E
:104A78000AF00FFF46200AF00CFF4C2000F0F0BDB2
:104A8800042800F04E81052840F0C4861A200AF058
:104A980035FF002455E1282800F07B8515D8242807
:104AA80000F06285262840F0B586B24C06200AF050
:104AB80025FFB4F858010AF024FFB4F85A010AF0A7
:104AC80020FFB4F85C0100F0A1BE2C2800F074852A
:104AD8002E2800F0F0852A2840F09C8601200AF054
:104AE8000DFFA44B587900F0BBBD3D2800F014839E
:104AF8001DD8362800F0C5850AD8322800F0AA85C6
:104B0800342840F0878648200AF0F8FE0025F0E3B4
:104B18003A2800F0B6823B2800F0C283382840F0DB
:104B2800798604200AF0EAFE924C00F023BD45285D
:104B380000F0488627D8402800F09585422840F0A4
:104B480069868C4C10200AF0D9FE60790AF0A1FE23
:104B5800A0680AF0DFFE94F88E010AF09AFEB4F815
:104B680058010AF0CEFEB4F85A010AF0CAFEB4F8A9
:104B78005C010AF0C6FEB4F87E010AF0C2FEB4F881
:104B8800800100F043BE472800F0FA85C0F0CE85CA
:104B9800492840F03F8602200AF0B0FE754B9889FC
:104BA80000F034BE702800F0EA8258D8692800F076
:104BB80046822AD8652800F0F78015D84D2800F0DD
:104BC8002985642840F0268607200AF097FEE7200A
:104BD8000AF05FFE674B58790AF05BFE00200AF086
:104BE80058FE042000F0FDBD672800F0AD8100F2FA
:104BF8001A8212200AF082FE5F4B1B88B3F5806F81
:104C08008CBF08250125002480E16C2800F02A8249
:104C180017D86A2800F034846B2840F0FB850520FB
:104C28000AF06CFE554B18880AF06BFE544B188836
:104C38000AF067FE534B93F8760000F0010000F08D
:104C48000FBD6E284F4D00F0228200F270820620C0
:104C58000AF054FE686E0AF05DFE4B4B0FE27828AE
:104C680000F07F8118D8742800F064830AD872286D
:104C780000F0C683732840F0CD8508200AF03EFE78
:104C88000124F6E3762800F01B8400F28C832F20A1
:104C98000AF034FE3D4CFBE2A42800F0398414D815
:104CA8007C2800F0A185A02840F0B4850C200AF0EB
:104CB80025FE374B18680AF02DFE364B18680AF0A7
:104CC80029FE354B186800F08CBDF12800F085816D
:104CD800FE2800F04484F02840F09C85294C0420EC
:104CE8000AF00CFE636CB3F85A000AF00AFE636C13
:104CF800B3F8580000F08ABD03200AF0FFFD002039
:104D08000AF0C7FD20460AF0C4FD0E2000F0A8BC3A
:104D18000AF0F4FD01200AF0BCFD0B200AF0B9FDF1
:104D2800F4E306200AF0EAFD52200AF0B2FD4D2015
:104D38000AF0AFFD44200AF0ACFD4F200AF0A9FDAF
:104D4800FFE0164B185D01340AF0A3FD0B2CF8D1D7
:104D58000024134B185D01340AF09BFD082CF8D190
:104D68000024104B185D01340AF093FD072CF8D18C
:104D780000F04EBD6011002024000020D61900204C
:104D8800D81900206010002048110020876E010803
:104D9800ACF7FF1FB0F7FF1FB4F7FF1F778E0108AE
:104DA800838E01085B8E0108CB4C0B200AF0A6FD10
:104DB80020880AF0A6FD6268C84B9A420CBF208979
:104DC800608980B20AF09DFDC54B1B68C3F3C00023
:104DD800C3F38002800040EA4200C3F3400210435C
:104DE800C3F3401240EAC20003F0100318430AF06C
:104DF80088FDBC4B1A88E368247C02F0080103F4A0
:104E0800475949EA010903F4804149EA010903F4D1
:104E1800004149EA010903F4803149EA010903F430
:104E2800003149EA010903F4802149EA010903F440
:104E3800002149EA010903F4801149EA010903F054
:104E4800007349EA0303DFF8CC9299F8009012F056
:104E5800010FC9F3800914BF4FF002084FF0000892
:104E680043EA090312F0020F43EA080314BF4FF0A4
:104E7800040C4FF0000C12F0040F43EA0C0C14BFA2
:104E88004FF0100E4FF0000E12F0400F14BF202705
:104E980000274CEA0E0E12F0100F14BF4FF40076E4
:104EA80000264EEA070712F0200F14BF4FF4806562
:104EB80000253E4312F4807F14BF4FF400600020A9
:104EC800354312F4007F14BF4FF40011002128432A
:104ED80012F4806F41EA000114BF4FF08063002391
:104EE800002019430346A3420AD27F4A9D5C01224F
:104EF80002FA05F50D421CBF9A4010430133F2E750
:104F08000AF008FD794B93F8B407A9E3784B33F915
:104F1800140090FBF5F0013480B20AF0F2FC032C87
:104F2800F4D16D4CA08D0AF0ECFCE08D0AF0E9FCA0
:104F3800208E0AF0E6FC00200AF0E3FC00200AF0CC
:104F4800E0FC002000F062BC10200AF0D7FC00242E
:104F5800684B185D01340AF09CFC102CF8D100F065
:104F680057BC70200AF0CAFC00265B4D0E246B6CFF
:104F7800744323440136B3F819010AF0C2FC6B6C80
:104F88002344B3F81B010AF0BCFC6B6C2344B3F850
:104F98001D010AF0B6FC6B6C234493F81F010AF05C
:104FA80078FC6B6C234493F820010AF072FC6B6C5C
:104FB800234493F821010AF06CFC6B6C234493F8AA
:104FC80022010AF066FC6B6C1C44D4F823010AF039
:104FD800A1FC082EC9D100F01BBC7020434C0AF07C
:104FE8008DFC04F1700594F8D0000AF052FC94F896
:104FF800D1000AF04EFC94F8D2000AF04AFC94F86A
:10500800D3000AF046FC94F8D4000AF042FC94F865
:10501800D5000AF03EFC073494F8CF000AF039FCBA
:10502800AC42E0D1F4E310200AF068FC0024324BD3
:10503800185D01340AF02DFC102CF8D1E8E32F4D4F
:105048002878400000F0FE000AF058FC00242B7875
:105058009C4280F0DD832A4B33F814000AF051FC9F
:105068000134F4E71C4C06200AF048FCB4F8600050
:105078000AF047FCB4F862000AF043FC214B188898
:10508800C4E304200AF03AFC134B986EA9E3072006
:105098000AF034FC1C4B1888FF28A8BFFF20C0B2B8
:1050A8000AF0F7FB194B186880F3100080B20AF079
:1050B80028FCB5F86C000AF024FC0C4B93F883210B
:1050C800134B186822B10A23584380F3100001E0FB
:1050D80000F30F0080B299E36010002000540040F4
:1050E80058190020201A002071100020601100209B
:1050F8004211002092100020A8100020C41F002098
:105108002431002050110020481900205419002093
:1051180050190020AB330020B34C02200AF0EEFBFC
:1051280094F8DE010AF0B5FB94F8DD0198E20B2053
:105138000AF0E4FB2B6F18780AF0ABFB2B6F58785A
:105148000AF0A7FB00262B6FA84C334401361879C8
:105158000AF09FFB032EF6D1236FD8790AF099FB4A
:10516800236F98780AF095FB236FD8780AF091FBA3
:10517800236F58890AF0C5FB236F187A70E29B4C9D
:105188001E200AF0BBFB636C1B78022B4FF0000556
:105198006BD1636C03EB850393ED080AB2EE048AC6
:1051A80020EE080A0FF07EFC80F30800C0B20AF077
:1051B80070FB636CDFED8E7A03EB850393ED0B0ACE
:1051C80020EE270A0FF06EFC80F30800C0B20AF048
:1051D80060FB636CDFED877A03EB850393ED0E0AC2
:1051E80020EE270A0FF05EFC80F30800C0B20135FC
:1051F8000AF04FFB032DCCD1072D636C23D193ED1F
:10520800110A20EE080A0FF04DFC80F30800C0B226
:105218000AF03FFB636C93ED120A20EE080A0FF0C8
:1052280041FC80F30800C0B20AF033FB636C93F8CA
:105238004C3000EE103AB8EE400A0FF033FC80F321
:105248000800C0B20BE02B4458780AF022FB636CCC
:105258002B44D87A0AF01DFB636C2B44587D01352A
:105268000AF017FB0A2DC7D1D2E2636C2B44587899
:105278000AF00FFB636C2B44D87A0AF00AFB636CC4
:105288002B440135587D0AF004FB0A2DEDD1BFE20D
:1052980014F8010F002800F0BB820AF0FAFAF7E7C9
:1052A80001200AF02BFB514B5B6C1878D8E1502099
:1052B8000AF024FB00254D4B5C6C4F4B04EB850436
:1052C8000C2194F8792001FB0233013593F838005A
:1052D8000AF0DFFA94F87A000AF0DBFA94F87B0017
:1052E8000AF0D7FA94F87C000AF0D3FA142DE2D128
:1052F8008EE23E4B5C6C062303FB0544013594F8B3
:10530800CE000AF0C6FA94F8C9000AF0C2FA94F876
:10531800CA000AF0BEFA94F8CB000AF0BAFA94F878
:10532800CC000AF0B6FA94F8CD000AF0B2FA0C2DC7
:10533800DFD16DE24FF00008012600272B4B1A7CC5
:10534800974227DA11330024FA5C2B4D0C2305F120
:1053580030016343595C914207D12B44586B0FF0DD
:10536800D6F982462EB9B14605E001341C2CECD1A1
:105378000EE080440CE0D1450ADA0C2303FB045309
:105388005B6B13F809000AF084FA09F10109F2E7E6
:105398000137D3E7002E00F03B825FFA88F00AF06D
:1053A800ADFA0026C9E7114D287C0AF0A7FA0024B7
:1053B8002B7C9C4280F02C82104BE65C00210E482E
:1053C8000C2200F1300702FB01F3DA5DB24205D18D
:1053D800034493F838000AF05CFA02E001311C2912
:1053E800EDD10134E4E700BF601100206010002017
:1053F8000000C84200007A44886E0108711000203D
:10540800D34C16200AF07AFAB4F894010AF079FA23
:10541800B4F840010AF075FAB4F842010AF071FADA
:10542800B4F844010AF06DFAB4F8D6010AF069FA42
:1054380094F8EB010AF02DFA00200AF02AFA94F801
:10544800EC010AF026FA94F883010AF022FA94F89B
:1054580090010AF01EFA00200AF01BFABD4B5B6CA3
:105468000A20B3F9563093FBF0F080B20AF049FAFB
:1054780080E0E0B201340AF00CFA092CF9D1C7E156
:1054880010200AF03BFAB44BB44C187800F0020034
:105498000AF0FFF9B24B18780AF0FBF920680AF015
:1054A80039FA60680AF036FAAE4B18880AF029FA19
:1054B800AD4B18880AF025FAA64BB3F87400A5E19D
:1054C8000AF0CAF9074612200AF018FAA14C17B9CF
:1054D800A66FE56F07E0102F13BF0025D4F8806092
:1054E800D4F884502E4638460AF0D3F930460AF0EC
:1054F80011FA28460AF00EFAD4F888000AF00AFAD7
:1055080000200AF0FEF900200AF0FBF90020A7E0CD
:10551800904D95F88C0080000130C0B20AF0EEF989
:1055280095F88C000AF0B5F900242E4696F88C30D0
:105538009C4280F06D818D4D285D0AF0AAF905F135
:105548001003185D0AF0A5F905F120033035185D40
:105558000AF09FF9285D0AF09CF90134E6E7082073
:105568000AF0CCF90020E4E404200AF0C7F9784BEB
:10557800986836E194F878010AF08BF994F87C0180
:105588000AF087F994F87B010AF083F994F87D0111
:1055980066E06F4C07200AF0B1F9B4F87E010AF012
:1055A800B0F9B4F880010AF0ACF994F882010AF075
:1055B80070F9B4F8840129E1654C0C200AF09EF9D1
:1055C80094F88E010AF065F9B4F898010AF099F98F
:1055D800B4F894010AF095F9B4F896010AF091F933
:1055E80094F88F010AF055F9B4F89A010AF089F98C
:1055F800B4F89C010AE1564C04200AF07FF994F8AB
:10560800D4010AF046F994F8D5010AF042F9B4F841
:10561800D601FBE0564C574D207800EB4000C0B255
:105628000AF06CF9002623789E4205F1020580F005
:10563800EF8015F8020C0AF02CF915F8010C00EBB4
:10564800800000EB800000F2EE2080B20AF059F9E9
:105658000136E8E701200AF051F93D4B93F8900133
:105668000AF017F9D4E008200AF048F90024384B6A
:105678002344013493F886010AF00BF9082CF6D17B
:10568800C6E0344B324C93F8CD00C0EBC000C0B23A
:105698000AF034F904F1280594F8F2010023364A97
:1056A800D25C904200F0B8800C333C2BF7D1083420
:1056B800AC42F1D1ACE04020254C0AF01FF904F1CE
:1056C8004005B4F8AC020AF01CF994F8AE020AF0EE
:1056D800E0F8043494F8AB020AF0DBF8AC42F0D1FD
:1056E80096E0E0201A4C0AF009F904F18005B4F8B4
:1056F8002E0200F03F000AF004F9B4F82E02C0F3BD
:1057080086100AF0FEF894F82C0200090AF0C1F895
:1057180094F82C0200F00F000AF0BBF8043494F857
:1057280029020AF0B6F8AC42E1D171E0134C0D2021
:105738000AF0E4F803F0FEFC0AF0ABF820880AF05F
:10574800E9F8E0680AF0E6F805F054F949E000BF26
:1057580060110020601000205C19002064190020EE
:1057680062190020601900205E190020ED10002049
:10577800C41F0020FE120020D01F002014000020AB
:105788000AF07EF8054684200AF0B8F828460AF0A0
:10579800C1F82F4BDC6805F18003A3428CBF641B62
:1057A800802405F0DFF928462246694603F0F6FC16
:1057B80000240546AC422BDA1DF804000AF069F80B
:1057C8000134F7E713200AF099F80024214B185DFB
:1057D80001340AF05EF80B2CF8D100200AF09AF890
:1057E80000200AF097F813E01B4C08200AF086F80E
:1057F800B4F848010AF085F8B4F84A010AF081F8CB
:10580800B4F84C010AF07DF8B4F84E010AF079F8C2
:10581800012018E0002016E00AF03BF8B4F8F40183
:105828000AF06FF894F8F6010AF033F894F8F701E3
:105838000AF02FF894F8F9010AF02BF894F8F80117
:105848000AF027F833E720B0BDEC028BBDE8F087FB
:1058580014000020778E0108601100202DE9F04324
:10586800CC4C237885B00746002B00F0EB816268AA
:10587800A368D31A7C2B40F2E581237BA260013315
:105888002373002606F12400C24DC0B207F050FA77
:1058980005F10E0333F9163007EE903ABE4B1B881C
:1058A800B8EEE77A07EE903AF8EEE77A0136C7EEF7
:1058B800277A9FEDBA7A67EE877AFDEEE77ACDED23
:1058C800017ABDF9040007F021FA032EDAD130205D
:1058D80007F02EFAB5F9140007F018FA07F020FAC5
:1058E8002B7B9E072BD1AA6841F288339A4217D99D
:1058F800102007F01DFA6426A86990FBF6F000B2A4
:1059080007F004FA212007F013FAA86990FBF6F3D0
:1059180006FB13000028B8BF404200B207F0F6F9B2
:10592800142007F005FAB4F91C0007F0EFF91C2061
:1059380007F0FEF9002007F0E9F907F0F1F9237BF9
:10594800944E580740F05B81022007F0F1F9306A65
:105958006423323090FBF3F000B207F0D7F903204C
:10596800B6F92A5007F0E4F98D4B1B7859074FF028
:10597800050895FBF8F5ADB20DD506F5D970394691
:1059880005F083FF28B9D6F80C3813F0100F18BFAC
:10599800002528B205E0D6F810389889B0FBF8F051
:1059A80000B207F0B3F9D4F80C387A4D9A076CD5E1
:1059B800DFF80082B5F8166898F80030B5F81428B2
:1059C80036016427B6B207FB02325B00B2FBF3F381
:1059D80046EA0326B6B2C3F303231E43062007F0A4
:1059E800A7F930B207F092F9B5F8163898F8001010
:1059F80001339BB293FBF1F201FB1233A5F8163881
:105A0800D5F818389B7B012B05D1392007F090F980
:105A1800B5F914081AE0B5F814586E233A205D4316
:105A2800152607F085F995FBF6F5AEB2B6FBF7F546
:105A380028B207F06BF907FB15653B2007F078F9EA
:105A4800A8B2451D0A2095FBF0F000B207F05EF9F8
:105A5800282007F06DF9D4F81C380A2093FBF0F0E1
:105A680000B207F053F9042007F062F9D4F81038AF
:105A78009B8913B104F010FA04E0464BD3F82008D0
:105A880080F3100000B207F041F9D4F82438414EF1
:105A98009B0640F1A98096F828389F071DD511204C
:105AA80007F046F9B6F82A083E4B4FF4F365684309
:105AB80090FBF3F000B207F029F9192007F038F944
:105AC800B6F82A084543642095FBF0F595FBF0F3FA
